{
  "contractName": "COSCrowdSale",
  "abi": [
    {
      "constant": false,
      "inputs": [
        {
          "name": "_internalTokens",
          "type": "uint256"
        }
      ],
      "name": "finalize",
      "outputs": [],
      "payable": false,
      "stateMutability": "nonpayable",
      "type": "function"
    },
    {
      "constant": true,
      "inputs": [],
      "name": "minLimit",
      "outputs": [
        {
          "name": "",
          "type": "uint256"
        }
      ],
      "payable": false,
      "stateMutability": "view",
      "type": "function"
    },
    {
      "constant": false,
      "inputs": [
        {
          "name": "_tierFrom",
          "type": "uint8"
        },
        {
          "name": "_tierTo",
          "type": "uint8"
        },
        {
          "name": "_tokens",
          "type": "uint256"
        }
      ],
      "name": "moveTokensForSale",
      "outputs": [],
      "payable": false,
      "stateMutability": "nonpayable",
      "type": "function"
    },
    {
      "constant": true,
      "inputs": [],
      "name": "checkContributorStatus",
      "outputs": [
        {
          "name": "whitelisted",
          "type": "bool"
        },
        {
          "name": "bonusTier",
          "type": "bool"
        }
      ],
      "payable": false,
      "stateMutability": "view",
      "type": "function"
    },
    {
      "constant": true,
      "inputs": [],
      "name": "decimals",
      "outputs": [
        {
          "name": "",
          "type": "uint256"
        }
      ],
      "payable": false,
      "stateMutability": "view",
      "type": "function"
    },
    {
      "constant": true,
      "inputs": [],
      "name": "cap",
      "outputs": [
        {
          "name": "",
          "type": "uint256"
        }
      ],
      "payable": false,
      "stateMutability": "view",
      "type": "function"
    },
    {
      "constant": true,
      "inputs": [],
      "name": "weiRaised",
      "outputs": [
        {
          "name": "",
          "type": "uint256"
        }
      ],
      "payable": false,
      "stateMutability": "view",
      "type": "function"
    },
    {
      "constant": false,
      "inputs": [
        {
          "name": "_price",
          "type": "uint256"
        }
      ],
      "name": "getEtherPrice",
      "outputs": [],
      "payable": false,
      "stateMutability": "nonpayable",
      "type": "function"
    },
    {
      "constant": false,
      "inputs": [],
      "name": "pauseContract",
      "outputs": [],
      "payable": false,
      "stateMutability": "nonpayable",
      "type": "function"
    },
    {
      "constant": true,
      "inputs": [],
      "name": "cosToken",
      "outputs": [
        {
          "name": "",
          "type": "address"
        }
      ],
      "payable": false,
      "stateMutability": "view",
      "type": "function"
    },
    {
      "constant": true,
      "inputs": [],
      "name": "teamWallet",
      "outputs": [
        {
          "name": "",
          "type": "address"
        }
      ],
      "payable": false,
      "stateMutability": "view",
      "type": "function"
    },
    {
      "constant": false,
      "inputs": [
        {
          "name": "_addresses",
          "type": "address[]"
        },
        {
          "name": "_status",
          "type": "bool"
        }
      ],
      "name": "whitelistAddresses",
      "outputs": [],
      "payable": false,
      "stateMutability": "nonpayable",
      "type": "function"
    },
    {
      "constant": true,
      "inputs": [],
      "name": "tknsCalculated",
      "outputs": [
        {
          "name": "",
          "type": "bool"
        }
      ],
      "payable": false,
      "stateMutability": "view",
      "type": "function"
    },
    {
      "constant": true,
      "inputs": [],
      "name": "icoEndTime",
      "outputs": [
        {
          "name": "",
          "type": "uint256"
        }
      ],
      "payable": false,
      "stateMutability": "view",
      "type": "function"
    },
    {
      "constant": false,
      "inputs": [
        {
          "name": "_totalNumWhitelisters",
          "type": "uint256"
        }
      ],
      "name": "distributeRemainingTokens",
      "outputs": [
        {
          "name": "success",
          "type": "bool"
        }
      ],
      "payable": false,
      "stateMutability": "nonpayable",
      "type": "function"
    },
    {
      "constant": true,
      "inputs": [],
      "name": "owner",
      "outputs": [
        {
          "name": "",
          "type": "address"
        }
      ],
      "payable": false,
      "stateMutability": "view",
      "type": "function"
    },
    {
      "constant": true,
      "inputs": [],
      "name": "icoStartTime",
      "outputs": [
        {
          "name": "",
          "type": "uint256"
        }
      ],
      "payable": false,
      "stateMutability": "view",
      "type": "function"
    },
    {
      "constant": false,
      "inputs": [],
      "name": "unpauseContract",
      "outputs": [],
      "payable": false,
      "stateMutability": "nonpayable",
      "type": "function"
    },
    {
      "constant": true,
      "inputs": [],
      "name": "remainingTokens",
      "outputs": [
        {
          "name": "",
          "type": "uint256"
        }
      ],
      "payable": false,
      "stateMutability": "view",
      "type": "function"
    },
    {
      "constant": false,
      "inputs": [],
      "name": "buyTokens",
      "outputs": [
        {
          "name": "",
          "type": "uint8"
        }
      ],
      "payable": true,
      "stateMutability": "payable",
      "type": "function"
    },
    {
      "constant": false,
      "inputs": [],
      "name": "claimBonusTokens",
      "outputs": [],
      "payable": false,
      "stateMutability": "nonpayable",
      "type": "function"
    },
    {
      "constant": true,
      "inputs": [],
      "name": "holdings",
      "outputs": [
        {
          "name": "",
          "type": "address"
        }
      ],
      "payable": false,
      "stateMutability": "view",
      "type": "function"
    },
    {
      "constant": false,
      "inputs": [
        {
          "name": "newOwner",
          "type": "address"
        }
      ],
      "name": "transferOwnership",
      "outputs": [],
      "payable": false,
      "stateMutability": "nonpayable",
      "type": "function"
    },
    {
      "constant": true,
      "inputs": [],
      "name": "tknsPerPerson",
      "outputs": [
        {
          "name": "",
          "type": "uint256"
        }
      ],
      "payable": false,
      "stateMutability": "view",
      "type": "function"
    },
    {
      "constant": true,
      "inputs": [],
      "name": "ethPrice",
      "outputs": [
        {
          "name": "",
          "type": "uint256"
        }
      ],
      "payable": false,
      "stateMutability": "view",
      "type": "function"
    },
    {
      "inputs": [
        {
          "name": "_holdings",
          "type": "address"
        },
        {
          "name": "_cosToken",
          "type": "address"
        },
        {
          "name": "_teamWallet",
          "type": "address"
        }
      ],
      "payable": false,
      "stateMutability": "nonpayable",
      "type": "constructor"
    },
    {
      "payable": true,
      "stateMutability": "payable",
      "type": "fallback"
    },
    {
      "anonymous": false,
      "inputs": [
        {
          "indexed": false,
          "name": "_owner",
          "type": "address"
        },
        {
          "indexed": false,
          "name": "_msgsender",
          "type": "address"
        },
        {
          "indexed": false,
          "name": "_qtyOfTokensRequested",
          "type": "uint256"
        }
      ],
      "name": "LogTokensTransferedFrom",
      "type": "event"
    },
    {
      "anonymous": false,
      "inputs": [
        {
          "indexed": false,
          "name": "_buyer",
          "type": "address"
        },
        {
          "indexed": false,
          "name": "_amount",
          "type": "uint256"
        }
      ],
      "name": "LogTokensReserved",
      "type": "event"
    },
    {
      "anonymous": false,
      "inputs": [
        {
          "indexed": false,
          "name": "_investor",
          "type": "address"
        },
        {
          "indexed": false,
          "name": "_amount",
          "type": "uint256"
        }
      ],
      "name": "LogWithdrawal",
      "type": "event"
    },
    {
      "anonymous": false,
      "inputs": [
        {
          "indexed": false,
          "name": "_participant",
          "type": "address"
        },
        {
          "indexed": false,
          "name": "_amountTkns",
          "type": "uint256"
        }
      ],
      "name": "LogBonusRedeemed",
      "type": "event"
    },
    {
      "anonymous": false,
      "inputs": [
        {
          "indexed": true,
          "name": "previousOwner",
          "type": "address"
        },
        {
          "indexed": true,
          "name": "newOwner",
          "type": "address"
        }
      ],
      "name": "OwnershipTransferred",
      "type": "event"
    }
  ],
  "bytecode": "0x6060604052341561000f57600080fd5b6040516060806200247c833981016040528080519060200190919080519060200190919080519060200190919050506000336000806101000a81548173ffffffffffffffffffffffffffffffffffffffff021916908373ffffffffffffffffffffffffffffffffffffffff16021790555060008473ffffffffffffffffffffffffffffffffffffffff16141515156100a657600080fd5b60008373ffffffffffffffffffffffffffffffffffffffff16141515156100cc57600080fd5b60008273ffffffffffffffffffffffffffffffffffffffff16141515156100f257600080fd5b42600381905550624f1a00420160048190555081600560006101000a81548173ffffffffffffffffffffffffffffffffffffffff021916908373ffffffffffffffffffffffffffffffffffffffff160217905550600060068190555082600f60006101000a81548173ffffffffffffffffffffffffffffffffffffffff021916908373ffffffffffffffffffffffffffffffffffffffff160217905550600a60088190555083600a60006101000a81548173ffffffffffffffffffffffffffffffffffffffff021916908373ffffffffffffffffffffffffffffffffffffffff16021790555033600b60006101000a81548173ffffffffffffffffffffffffffffffffffffffff021916908373ffffffffffffffffffffffffffffffffffffffff160217905550690470bb552179fe040000600c819055506402540be400624c4b4002601060008060ff168152602001908152602001600020600001819055506402540be400627270e00260106000600160ff16815260200190815260200160002060000181905550600290505b600760ff168160ff1610156102c8576402540be40063023c346002601060008360ff1660ff168152602001908152602001600020600001819055508080600101915050610280565b505050506121a080620002dc6000396000f300606060405260043610610149576000357c0100000000000000000000000000000000000000000000000000000000900463ffffffff16806305261aea146101a75780631fd8088d146101ca578063241849e4146101f35780632b9d782e1461022e578063313ce56714610266578063355274ea1461028f5780634042b66f146102b857806341f19928146102e1578063439766ce146103045780634785a80414610319578063599270441461036e57806362e7707e146103c357806373c9da24146104285780637e1055b6146104555780638646eea71461047e5780638da5cb5b146104b9578063a7c3d71b1461050e578063b33712c514610537578063bf5839031461054c578063d0febe4c14610575578063e28d8c4b14610599578063e79bf13b146105ae578063f2fde38b14610603578063f7cb67b71461063c578063ff186b2e14610665575b600b60009054906101000a900473ffffffffffffffffffffffffffffffffffffffff1673ffffffffffffffffffffffffffffffffffffffff163373ffffffffffffffffffffffffffffffffffffffff161415156101a557600080fd5b005b34156101b257600080fd5b6101c8600480803590602001909190505061068e565b005b34156101d557600080fd5b6101dd6108f7565b6040518082815260200191505060405180910390f35b34156101fe57600080fd5b61022c600480803560ff1690602001909190803560ff169060200190919080359060200190919050506108fd565b005b341561023957600080fd5b610241610a4f565b6040518083151515158152602001821515151581526020019250505060405180910390f35b341561027157600080fd5b610279610b19565b6040518082815260200191505060405180910390f35b341561029a57600080fd5b6102a2610b1f565b6040518082815260200191505060405180910390f35b34156102c357600080fd5b6102cb610b25565b6040518082815260200191505060405180910390f35b34156102ec57600080fd5b6103026004808035906020019091905050610b2b565b005b341561030f57600080fd5b610317610b90565b005b341561032457600080fd5b61032c610c08565b604051808273ffffffffffffffffffffffffffffffffffffffff1673ffffffffffffffffffffffffffffffffffffffff16815260200191505060405180910390f35b341561037957600080fd5b610381610c2e565b604051808273ffffffffffffffffffffffffffffffffffffffff1673ffffffffffffffffffffffffffffffffffffffff16815260200191505060405180910390f35b34156103ce57600080fd5b6104266004808035906020019082018035906020019080806020026020016040519081016040528093929190818152602001838360200280828437820191505050505050919080351515906020019091905050610c54565b005b341561043357600080fd5b61043b610d12565b604051808215151515815260200191505060405180910390f35b341561046057600080fd5b610468610d25565b6040518082815260200191505060405180910390f35b341561048957600080fd5b61049f6004808035906020019091905050610d2b565b604051808215151515815260200191505060405180910390f35b34156104c457600080fd5b6104cc610e29565b604051808273ffffffffffffffffffffffffffffffffffffffff1673ffffffffffffffffffffffffffffffffffffffff16815260200191505060405180910390f35b341561051957600080fd5b610521610e4f565b6040518082815260200191505060405180910390f35b341561054257600080fd5b61054a610e55565b005b341561055757600080fd5b61055f610ecd565b6040518082815260200191505060405180910390f35b61057d610ed3565b604051808260ff1660ff16815260200191505060405180910390f35b34156105a457600080fd5b6105ac611754565b005b34156105b957600080fd5b6105c1611aaf565b604051808273ffffffffffffffffffffffffffffffffffffffff1673ffffffffffffffffffffffffffffffffffffffff16815260200191505060405180910390f35b341561060e57600080fd5b61063a600480803573ffffffffffffffffffffffffffffffffffffffff16906020019091905050611ad5565b005b341561064757600080fd5b61064f611c2a565b6040518082815260200191505060405180910390f35b341561067057600080fd5b610678611c30565b6040518082815260200191505060405180910390f35b600c546006541015806106a2575060045442115b806106b4575060006106b2611c36565b145b15156106bf57600080fd5b6000809054906101000a900473ffffffffffffffffffffffffffffffffffffffff1673ffffffffffffffffffffffffffffffffffffffff163373ffffffffffffffffffffffffffffffffffffffff1614151561071a57600080fd5b600f60009054906101000a900473ffffffffffffffffffffffffffffffffffffffff1673ffffffffffffffffffffffffffffffffffffffff166323b872dd600b60009054906101000a900473ffffffffffffffffffffffffffffffffffffffff16600560009054906101000a900473ffffffffffffffffffffffffffffffffffffffff16846000604051602001526040518463ffffffff167c0100000000000000000000000000000000000000000000000000000000028152600401808473ffffffffffffffffffffffffffffffffffffffff1673ffffffffffffffffffffffffffffffffffffffff1681526020018373ffffffffffffffffffffffffffffffffffffffff1673ffffffffffffffffffffffffffffffffffffffff1681526020018281526020019350505050602060405180830381600087803b151561085f57600080fd5b6102c65a03f1151561087057600080fd5b5050506040518051905050600a60009054906101000a900473ffffffffffffffffffffffffffffffffffffffff1673ffffffffffffffffffffffffffffffffffffffff166108fc3073ffffffffffffffffffffffffffffffffffffffff16319081150290604051600060405180830381858888f1935050505015156108f457600080fd5b50565b60095481565b6000809054906101000a900473ffffffffffffffffffffffffffffffffffffffff1673ffffffffffffffffffffffffffffffffffffffff163373ffffffffffffffffffffffffffffffffffffffff1614151561095857600080fd5b6001600d60016101000a81548160ff0219169083151502179055151561097d57600080fd5b8160ff168360ff1611151561099157600080fd5b6109dc601060008560ff1660ff16815260200190815260200160002060010154601060008660ff1660ff16815260200190815260200160002060000154611cfe90919063ffffffff16565b81111515156109ea57600080fd5b610a1981601060008660ff1660ff16815260200190815260200160002060000154611cfe90919063ffffffff16565b50610a4981601060008560ff1660ff16815260200190815260200160002060000154611d1790919063ffffffff16565b50505050565b60008060016002811115610a5f57fe5b600e60003373ffffffffffffffffffffffffffffffffffffffff1673ffffffffffffffffffffffffffffffffffffffff16815260200190815260200160002060020160029054906101000a900460ff166002811115610aba57fe5b146003600e60003373ffffffffffffffffffffffffffffffffffffffff1673ffffffffffffffffffffffffffffffffffffffff16815260200190815260200160002060020160009054906101000a900460ff1660ff1610915091509091565b60085481565b600c5481565b60065481565b6000809054906101000a900473ffffffffffffffffffffffffffffffffffffffff1673ffffffffffffffffffffffffffffffffffffffff163373ffffffffffffffffffffffffffffffffffffffff16141515610b8657600080fd5b8060078190555050565b6000809054906101000a900473ffffffffffffffffffffffffffffffffffffffff1673ffffffffffffffffffffffffffffffffffffffff163373ffffffffffffffffffffffffffffffffffffffff16141515610beb57600080fd5b6001600d60016101000a81548160ff021916908315150217905550565b600f60009054906101000a900473ffffffffffffffffffffffffffffffffffffffff1681565b600560009054906101000a900473ffffffffffffffffffffffffffffffffffffffff1681565b6000806000809054906101000a900473ffffffffffffffffffffffffffffffffffffffff1673ffffffffffffffffffffffffffffffffffffffff163373ffffffffffffffffffffffffffffffffffffffff16141515610cb257600080fd5b600091505b8351821015610d0c578382815181101515610cce57fe5b906020019060200201519050600115158315151415610cf557610cf081611d35565b610cff565b610cfe81612051565b5b8180600101925050610cb7565b50505050565b600d60029054906101000a900460ff1681565b60045481565b600080600c54600654101580610d42575060045442115b80610d5457506000610d52611c36565b145b1515610d5f57600080fd5b6000809054906101000a900473ffffffffffffffffffffffffffffffffffffffff1673ffffffffffffffffffffffffffffffffffffffff163373ffffffffffffffffffffffffffffffffffffffff16141515610dba57600080fd5b6402540be400614e2002600154111515610dd357600080fd5b610de9600260015461212690919063ffffffff16565b9050610dfe838261212690919063ffffffff16565b6002819055506001600d60026101000a81548160ff0219169083151502179055506001915050919050565b600b60009054906101000a900473ffffffffffffffffffffffffffffffffffffffff1681565b60035481565b6000809054906101000a900473ffffffffffffffffffffffffffffffffffffffff1673ffffffffffffffffffffffffffffffffffffffff163373ffffffffffffffffffffffffffffffffffffffff16141515610eb057600080fd5b6000600d60016101000a81548160ff021916908315150217905550565b60015481565b6000806000806000806000600c54600654108015610ef2575060045442105b8015610f0557506000610f03611c36565b115b1515610f1057600080fd5b60001515600d60019054906101000a900460ff161515141515610f3257600080fd5b6000803690501480610f48575060046000369050145b1515610f5357600080fd5b600280811115610f5f57fe5b600e60003373ffffffffffffffffffffffffffffffffffffffff1673ffffffffffffffffffffffffffffffffffffffff16815260200190815260200160002060020160029054906101000a900460ff166002811115610fba57fe5b14151515610fc757600080fd5b670de0b6b3a76400003410151515610fde57600080fd5b61103960075461102b6103e861101d600d60009054906101000a900460ff1660040260100160ff16670de0b6b3a764000061214190919063ffffffff16565b61212690919063ffffffff16565b61212690919063ffffffff16565b95506110656402540be400611057883461212690919063ffffffff16565b61214190919063ffffffff16565b93506110d060106000600d60009054906101000a900460ff1660ff1660ff1681526020019081526020016000206001015460106000600d60009054906101000a900460ff1660ff1660ff16815260200190815260200160002060000154611cfe90919063ffffffff16565b9250600d60009054906101000a900460ff16600e60003373ffffffffffffffffffffffffffffffffffffffff1673ffffffffffffffffffffffffffffffffffffffff16815260200190815260200160002060020160006101000a81548160ff021916908360ff160217905550828410151561128f57611181611172876111646402540be4008761212690919063ffffffff16565b61214190919063ffffffff16565b34611cfe90919063ffffffff16565b9150829350600d600081819054906101000a900460ff168092919060010191906101000a81548160ff021916908360ff16021790555050600760ff16600d60009054906101000a900460ff1660ff161015611249576112006402540be4006111f2888561214190919063ffffffff16565b61214190919063ffffffff16565b945084840193508460106000600d60009054906101000a900460ff1660ff1660ff168152602001908152602001600020600101600082825401925050819055506000915061128a565b3373ffffffffffffffffffffffffffffffffffffffff166108fc839081150290604051600060405180830381858888f19350505050151561128957600080fd5b5b6112c9565b8360106000600d60009054906101000a900460ff1660ff1660ff168152602001908152602001600020600101600082825401925050819055505b6112dc8234611cfe90919063ffffffff16565b905080600660008282540192505081905550600a60009054906101000a900473ffffffffffffffffffffffffffffffffffffffff1673ffffffffffffffffffffffffffffffffffffffff166108fc829081150290604051600060405180830381858888f19350505050151561135057600080fd5b80600e60003373ffffffffffffffffffffffffffffffffffffffff1673ffffffffffffffffffffffffffffffffffffffff16815260200190815260200160002060000160008282540192505081905550600d60009054906101000a900460ff16600e60003373ffffffffffffffffffffffffffffffffffffffff1673ffffffffffffffffffffffffffffffffffffffff16815260200190815260200160002060020160006101000a81548160ff021916908360ff1602179055506001600281111561141757fe5b600e60003373ffffffffffffffffffffffffffffffffffffffff1673ffffffffffffffffffffffffffffffffffffffff16815260200190815260200160002060020160029054906101000a900460ff16600281111561147257fe5b141561167d57600f60009054906101000a900473ffffffffffffffffffffffffffffffffffffffff1673ffffffffffffffffffffffffffffffffffffffff166323b872dd600b60009054906101000a900473ffffffffffffffffffffffffffffffffffffffff1633876000604051602001526040518463ffffffff167c0100000000000000000000000000000000000000000000000000000000028152600401808473ffffffffffffffffffffffffffffffffffffffff1673ffffffffffffffffffffffffffffffffffffffff1681526020018373ffffffffffffffffffffffffffffffffffffffff1673ffffffffffffffffffffffffffffffffffffffff1681526020018281526020019350505050602060405180830381600087803b151561159b57600080fd5b6102c65a03f115156115ac57600080fd5b50505060405180519050507f5e33aa51243f63fa9ddbcb5ad83c855f19c432c18cd480ee396279eb771505c7600b60009054906101000a900473ffffffffffffffffffffffffffffffffffffffff163386604051808473ffffffffffffffffffffffffffffffffffffffff1673ffffffffffffffffffffffffffffffffffffffff1681526020018373ffffffffffffffffffffffffffffffffffffffff1673ffffffffffffffffffffffffffffffffffffffff168152602001828152602001935050505060405180910390a1611739565b83600e60003373ffffffffffffffffffffffffffffffffffffffff1673ffffffffffffffffffffffffffffffffffffffff168152602001908152602001600020600101600082825401925050819055507f6387c93d20b3ff07ec699718ca35c71c5a2a744b6cf874e48db2d3ce8c74db103385604051808373ffffffffffffffffffffffffffffffffffffffff1673ffffffffffffffffffffffffffffffffffffffff1681526020018281526020019250505060405180910390a15b600d60009054906101000a900460ff16965050505050505090565b600d60029054906101000a900460ff16151561176f57600080fd5b6001600281111561177c57fe5b600e60003373ffffffffffffffffffffffffffffffffffffffff1673ffffffffffffffffffffffffffffffffffffffff16815260200190815260200160002060020160029054906101000a900460ff1660028111156117d757fe5b1415156117e357600080fd5b600360ff16600e60003373ffffffffffffffffffffffffffffffffffffffff1673ffffffffffffffffffffffffffffffffffffffff16815260200190815260200160002060020160009054906101000a900460ff1660ff161115151561184857600080fd5b600e60003373ffffffffffffffffffffffffffffffffffffffff1673ffffffffffffffffffffffffffffffffffffffff16815260200190815260200160002060020160019054906101000a900460ff161515156118a457600080fd5b6001600e60003373ffffffffffffffffffffffffffffffffffffffff1673ffffffffffffffffffffffffffffffffffffffff16815260200190815260200160002060020160016101000a81548160ff0219169083151502179055507f84bc016cc0601ea57524e665192e5c7e43518a493fbef77b05f5d62d2c8ac5b533600254604051808373ffffffffffffffffffffffffffffffffffffffff1673ffffffffffffffffffffffffffffffffffffffff1681526020018281526020019250505060405180910390a1600f60009054906101000a900473ffffffffffffffffffffffffffffffffffffffff1673ffffffffffffffffffffffffffffffffffffffff166323b872dd600b60009054906101000a900473ffffffffffffffffffffffffffffffffffffffff16336002546000604051602001526040518463ffffffff167c0100000000000000000000000000000000000000000000000000000000028152600401808473ffffffffffffffffffffffffffffffffffffffff1673ffffffffffffffffffffffffffffffffffffffff1681526020018373ffffffffffffffffffffffffffffffffffffffff1673ffffffffffffffffffffffffffffffffffffffff1681526020018281526020019350505050602060405180830381600087803b1515611a9157600080fd5b6102c65a03f11515611aa257600080fd5b5050506040518051905050565b600a60009054906101000a900473ffffffffffffffffffffffffffffffffffffffff1681565b6000809054906101000a900473ffffffffffffffffffffffffffffffffffffffff1673ffffffffffffffffffffffffffffffffffffffff163373ffffffffffffffffffffffffffffffffffffffff16141515611b3057600080fd5b600073ffffffffffffffffffffffffffffffffffffffff168173ffffffffffffffffffffffffffffffffffffffff1614151515611b6c57600080fd5b8073ffffffffffffffffffffffffffffffffffffffff166000809054906101000a900473ffffffffffffffffffffffffffffffffffffffff1673ffffffffffffffffffffffffffffffffffffffff167f8be0079c531659141344cd1fd0a4f28419497f9722a3daafe3b4186f6b6457e060405160405180910390a3806000806101000a81548173ffffffffffffffffffffffffffffffffffffffff021916908373ffffffffffffffffffffffffffffffffffffffff16021790555050565b60025481565b60075481565b600080600090505b600760ff168160ff161015611cf557601060008260ff1660ff16815260200190815260200160002060000154601060008360ff1660ff168152602001908152602001600020600101541015611ce857611cd8601060008360ff1660ff16815260200190815260200160002060010154601060008460ff1660ff16815260200190815260200160002060000154611cfe90919063ffffffff16565b6001600082825401925050819055505b8080600101915050611c3e565b60015491505090565b6000828211151515611d0c57fe5b818303905092915050565b6000808284019050838110151515611d2b57fe5b8091505092915050565b6000808273ffffffffffffffffffffffffffffffffffffffff1614151515611d5c57600080fd5b6001600e60008473ffffffffffffffffffffffffffffffffffffffff1673ffffffffffffffffffffffffffffffffffffffff16815260200190815260200160002060020160026101000a81548160ff02191690836002811115611dbb57fe5b0217905550600e60008373ffffffffffffffffffffffffffffffffffffffff1673ffffffffffffffffffffffffffffffffffffffff1681526020019081526020016000206001015490506000600e60008473ffffffffffffffffffffffffffffffffffffffff1673ffffffffffffffffffffffffffffffffffffffff16815260200190815260200160002060010181905550600f60009054906101000a900473ffffffffffffffffffffffffffffffffffffffff1673ffffffffffffffffffffffffffffffffffffffff166323b872dd600b60009054906101000a900473ffffffffffffffffffffffffffffffffffffffff1684846000604051602001526040518463ffffffff167c0100000000000000000000000000000000000000000000000000000000028152600401808473ffffffffffffffffffffffffffffffffffffffff1673ffffffffffffffffffffffffffffffffffffffff1681526020018373ffffffffffffffffffffffffffffffffffffffff1673ffffffffffffffffffffffffffffffffffffffff1681526020018281526020019350505050602060405180830381600087803b1515611f7057600080fd5b6102c65a03f11515611f8157600080fd5b50505060405180519050507f5e33aa51243f63fa9ddbcb5ad83c855f19c432c18cd480ee396279eb771505c7600b60009054906101000a900473ffffffffffffffffffffffffffffffffffffffff163383604051808473ffffffffffffffffffffffffffffffffffffffff1673ffffffffffffffffffffffffffffffffffffffff1681526020018373ffffffffffffffffffffffffffffffffffffffff1673ffffffffffffffffffffffffffffffffffffffff168152602001828152602001935050505060405180910390a15050565b60008173ffffffffffffffffffffffffffffffffffffffff161415151561207757600080fd5b6002600e60008373ffffffffffffffffffffffffffffffffffffffff1673ffffffffffffffffffffffffffffffffffffffff16815260200190815260200160002060020160026101000a81548160ff021916908360028111156120d657fe5b02179055506000600e60008373ffffffffffffffffffffffffffffffffffffffff1673ffffffffffffffffffffffffffffffffffffffff1681526020019081526020016000206001018190555050565b600080828481151561213457fe5b0490508091505092915050565b60008082840290506000841480612162575082848281151561215f57fe5b04145b151561216a57fe5b80915050929150505600a165627a7a72305820395d73478b4abf01cc728be0f6bbfcb908d9dbdd8cd2babc3d5e676d48e76fa60029",
  "source": "pragma solidity 0.4.18;\r\n\r\nimport './COSToken.sol';\r\nimport './Ownable.sol';\r\nimport './SafeMath.sol';\r\n\r\ncontract COSCrowdSale is Ownable{\r\n  using SafeMath for uint256;\r\n\r\n  uint256 constant internal MIN_CONTRIBUTION = 1 ether;\r\n  uint256 constant internal TOKEN_DECIMALS = 10**10;\r\n  uint256 constant internal ETH_DECIMALS = 10**18;\r\n  uint8 constant internal TIER_COUNT = 7;\r\n  uint8 constant internal BONUS_TIER = 3;\r\n  \r\n  uint256 public remainingTokens;\r\n  uint256 public tknsPerPerson;\r\n  uint256 public icoStartTime;\r\n  uint256 public icoEndTime;\r\n  address public teamWallet;\r\n  uint256 public weiRaised;\r\n  uint256 public ethPrice;\r\n  uint256 public decimals;\r\n  uint256 public minLimit;\r\n  address public holdings;\r\n  address public owner;\r\n  uint256 public cap;\r\n  uint8 private tier;\r\n  bool private paused;\r\n  bool public tknsCalculated;\r\n\r\n  enum Status {\r\n    New, Approved, Denied\r\n  }\r\n\r\n  struct WhitelistedInvestors {\r\n    uint256 contrAmount; //amount in wei\r\n    uint256 qtyTokens;\r\n    uint8 tierPurchased;\r\n    bool bonusPaid;\r\n    Status whitelistStatus;\r\n  }\r\n\r\n  mapping(address => WhitelistedInvestors) investors;\r\n\r\n  //The Cosmocoin token contract\r\n  COSToken public cosToken; \r\n\r\n  struct SaleTier {      \r\n    uint256 tokensToBeSold;  //amount of tokens to be sold in this SaleTier\r\n    uint256 tokensSold;      //amount of tokens sold in each SaleTier     \r\n  }\r\n   \r\n  mapping(uint8 => SaleTier) saleTier;\r\n\r\n  event LogTokensTransferedFrom(address _owner, address _msgsender, uint256 _qtyOfTokensRequested);\r\n  event LogTokensReserved(address _buyer, uint256 _amount);\r\n  event LogWithdrawal(address _investor, uint256 _amount);\r\n  event LogBonusRedeemed(address _participant, uint256 _amountTkns); \r\n \r\n  modifier isValidPayload() {\r\n    require(msg.data.length == 0 || msg.data.length == 4); // double check this one\r\n    _;\r\n  }\r\n\r\n  modifier icoIsActive() {\r\n    require(weiRaised < cap && now < icoEndTime && calculateUnsoldICOTokens() > 0);\r\n    _;\r\n  }\r\n\r\n  modifier icoHasEnded() {\r\n    require(weiRaised >= cap || now > icoEndTime || calculateUnsoldICOTokens() == 0);\r\n    _;\r\n  }\r\n\r\n  modifier pausedContract(){\r\n    require(paused == false);\r\n    _;\r\n  }\r\n\r\n  /// @dev confirm price thresholds and amounts\r\n  ///  holdings for holding ether\r\n  ///  COSToken token address pushed to mainnet first\r\n  function COSCrowdSale(address _holdings, address _cosToken, address _teamWallet) \r\n    public \r\n  {\r\n    require(_holdings != 0x0);\r\n    require(_cosToken != 0x0);\r\n    require(_teamWallet != 0x0);     \r\n \r\n    icoStartTime = now; //pick a block number to start on\r\n    icoEndTime = now + 60 days; //pick a block number to end on\r\n    teamWallet = _teamWallet;\r\n    weiRaised = 0;\r\n    cosToken = COSToken(_cosToken);    \r\n    decimals = 10;\r\n    holdings = _holdings;\r\n    owner = msg.sender;\r\n    cap = 20969 ether;\r\n\r\n    saleTier[0].tokensToBeSold = (5000000)*TOKEN_DECIMALS;\r\n    saleTier[1].tokensToBeSold = (7500000)*TOKEN_DECIMALS;\r\n\r\n   for(uint8 i=2; i<TIER_COUNT; i++){ \r\n    saleTier[i].tokensToBeSold = (37500000)*TOKEN_DECIMALS;\r\n   } \r\n }\r\n\r\n  /// @dev Fallback function.\r\n  /// @dev Reject random ethereum being sent to the contract.\r\n  /// @notice allows for owner to send ethereum to the contract in the event\r\n  /// of a refund\r\n  function()\r\n    public\r\n    payable\r\n  {\r\n    require(msg.sender == owner);\r\n  }\r\n\r\n  /// @notice buyer calls this function to order to get on the list for approval\r\n  /// buyers must send the ether with their whitelist application\r\n  function buyTokens()\r\n    external\r\n    payable\r\n    icoIsActive\r\n    pausedContract\r\n    isValidPayload\r\n    \r\n    returns (uint8)\r\n  {\r\n    require(investors[msg.sender].whitelistStatus != Status.Denied);\r\n    require(msg.value >= MIN_CONTRIBUTION);\r\n\r\n    uint256 price = (ETH_DECIMALS.mul(uint256(16+(4*tier))).div(1000)).div(ethPrice); //wei per token discluding decimals\r\n    uint256 buyTokensRemainingWei;\r\n    uint256 qtyOfTokensRequested = (msg.value.div(price)).mul(TOKEN_DECIMALS);\r\n    uint256 tierRemainingTokens = saleTier[tier].tokensToBeSold.sub(saleTier[tier].tokensSold);\r\n    uint256 remainingWei;\r\n    uint256 amount;\r\n\r\n    investors[msg.sender].tierPurchased = tier; \r\n    \r\n    if (qtyOfTokensRequested >= tierRemainingTokens){\r\n      remainingWei = msg.value.sub((tierRemainingTokens.div(TOKEN_DECIMALS)).mul(price));\r\n      qtyOfTokensRequested = tierRemainingTokens;\r\n      tier++; \r\n\r\n      if (tier < TIER_COUNT){\r\n        buyTokensRemainingWei = (remainingWei.mul(price)).mul(TOKEN_DECIMALS);\r\n        qtyOfTokensRequested += buyTokensRemainingWei;\r\n        saleTier[tier].tokensSold += buyTokensRemainingWei;\r\n        remainingWei = 0;\r\n      } else {\r\n        msg.sender.transfer(remainingWei); \r\n      }\r\n\r\n    } else {\r\n      saleTier[tier].tokensSold += qtyOfTokensRequested;\r\n    }\r\n\r\n    amount = msg.value.sub(remainingWei);\r\n    weiRaised += amount;\r\n    holdings.transfer(amount);\r\n\r\n    investors[msg.sender].contrAmount += amount;\r\n    investors[msg.sender].tierPurchased = tier;\r\n    if(investors[msg.sender].whitelistStatus == Status.Approved){\r\n      cosToken.transferFrom(owner, msg.sender, qtyOfTokensRequested);\r\n      LogTokensTransferedFrom(owner, msg.sender, qtyOfTokensRequested);     \r\n    } else {\r\n      investors[msg.sender].qtyTokens += qtyOfTokensRequested;\r\n      LogTokensReserved(msg.sender, qtyOfTokensRequested);\r\n    }\r\n\r\n    return tier;\r\n  }\r\n\r\n  ///@notice I want to get the price of ethereum every time I call the buy tokens function\r\n  ///what has to change in this function to make that happen safely\r\n  ///param ethereum price will exclude decimals\r\n  function getEtherPrice(uint256 _price)\r\n    external\r\n    onlyOwner\r\n    {\r\n      ethPrice = _price;\r\n    }\r\n\r\n  /// notice interface for founders to whitelist investors\r\n  ///  addresses array of investors\r\n  ///  tier Number\r\n  ///  status enable or disable\r\n  function whitelistAddresses(address[] _addresses, bool _status) \r\n    public \r\n    onlyOwner \r\n    {\r\n        for (uint256 i = 0; i < _addresses.length; i++) {\r\n            address investorAddress = _addresses[i];\r\n            if(_status == true){\r\n                approvedWhitelistAddress(investorAddress); \r\n            } else {\r\n                deniedWhitelistAddress(investorAddress);  \r\n            } \r\n        }\r\n   }\r\n\r\n  /// notice sends requested tokens to the whitelist person\r\n  function approvedWhitelistAddress(address _investorAddress) \r\n    internal\r\n  {\r\n    require(_investorAddress != 0x0);\r\n    investors[_investorAddress].whitelistStatus = Status.Approved;\r\n    uint256 tkns = investors[_investorAddress].qtyTokens;\r\n    investors[_investorAddress].qtyTokens = 0;\r\n    cosToken.transferFrom(owner, _investorAddress, tkns);\r\n    LogTokensTransferedFrom(owner, msg.sender, tkns);\r\n  }\r\n\r\n  /// @notice allows denied buyers the ability to get their Ether back\r\n  function deniedWhitelistAddress(address _investorAddress) \r\n    internal \r\n  {\r\n    require(_investorAddress != 0x0);\r\n    investors[_investorAddress].whitelistStatus = Status.Denied;\r\n    investors[_investorAddress].qtyTokens = 0;     \r\n  }\r\n\r\n  /// @notice used to move tokens from the later tiers into the earlier tiers\r\n  /// contract must be paused to do the move\r\n  /// param tier from later tier to subtract the tokens from\r\n  /// param tier to add the tokens to\r\n  /// param how many tokens to take\r\n  function moveTokensForSale(uint8 _tierFrom, uint8 _tierTo, uint256 _tokens) \r\n    public\r\n    onlyOwner\r\n  {\r\n    require(paused = true);\r\n    require(_tierFrom > _tierTo);\r\n    require(_tokens <= ((saleTier[_tierFrom].tokensToBeSold).sub(saleTier[_tierFrom].tokensSold)));\r\n\r\n    saleTier[_tierFrom].tokensToBeSold.sub(_tokens);\r\n    saleTier[_tierTo].tokensToBeSold.add(_tokens);\r\n  }\r\n\r\n  /// @notice pause specific funtions of the contract\r\n  function pauseContract() public onlyOwner {\r\n    paused = true;\r\n  }\r\n\r\n  /// @notice to unpause functions\r\n  function unpauseContract() public onlyOwner {\r\n    paused = false;\r\n  } \r\n\r\n  function checkContributorStatus()\r\n    view\r\n    public\r\n    returns (bool whitelisted, bool bonusTier)\r\n  {\r\n    return (investors[msg.sender].whitelistStatus == Status.Approved, investors[msg.sender].tierPurchased < 3);\r\n  }     \r\n\r\n  /// @dev freeze unsold tokens for use at a later time\r\n  /// and transfer team, owner and other internally promised tokens\r\n  /// param total number of tokens being transfered to the freeze wallet\r\n  function finalize(uint256 _internalTokens)\r\n    public\r\n    icoHasEnded\r\n    onlyOwner\r\n  {\r\n    cosToken.transferFrom(owner, teamWallet, _internalTokens);\r\n    holdings.transfer(this.balance);   \r\n  }\r\n\r\n  /// @notice calculate unsold tokens for transfer to holdings to be used at a later date\r\n  function calculateUnsoldICOTokens()\r\n    internal\r\n    returns (uint256)\r\n  {\r\n    for(uint8 i = 0; i < TIER_COUNT; i++){\r\n      if(saleTier[i].tokensSold < saleTier[i].tokensToBeSold){\r\n        remainingTokens += saleTier[i].tokensToBeSold.sub(saleTier[i].tokensSold);\r\n      }\r\n    }\r\n    return remainingTokens;\r\n  }\r\n\r\n  ///param total number of whitelist participants collected from the final count in the database\r\n  ///manually entered here tokens will be then be available for collection by the qualified participants\r\n  function distributeRemainingTokens(uint256 _totalNumWhitelisters)\r\n    public\r\n    icoHasEnded\r\n    onlyOwner\r\n    returns(bool success)\r\n  {\r\n    require(remainingTokens > 20000*TOKEN_DECIMALS);\r\n    uint256 bonusDistribution = remainingTokens.div(2); //split evenly between participants and reserve  \r\n    tknsPerPerson = bonusDistribution.div(_totalNumWhitelisters);\r\n    \r\n    tknsCalculated = true;\r\n\r\n    return true;   \r\n  }\r\n\r\n  ///@notice participants can claim their bonus tokens here after the distribute Remaining Tokens function \r\n  ///has been called claiments will only recieve extra tokens if the tkns calculated is ture they are whitelisted\r\n  ///and purchased within the BONUS TIERS\r\n  function claimBonusTokens()\r\n    public\r\n  {\r\n    require(tknsCalculated);\r\n    require(investors[msg.sender].whitelistStatus == Status.Approved);\r\n    require(investors[msg.sender].tierPurchased <= BONUS_TIER);\r\n    require(!investors[msg.sender].bonusPaid);\r\n\r\n    investors[msg.sender].bonusPaid = true;\r\n    LogBonusRedeemed(msg.sender, tknsPerPerson); \r\n\r\n    cosToken.transferFrom(owner, msg.sender, tknsPerPerson);\r\n\r\n    \r\n  }\r\n}",
  "sourcePath": "D:\\Projects\\iConsult\\contracts\\COSCrowdSale.sol",
  "compiler": {
    "name": "solc",
    "version": "0.4.18+commit.9cf6e910.Emscripten.clang"
  },
  "schemaVersion": "1.0.1",
  "updatedAt": "2018-01-14T14:28:44.221Z"
}