{
  "contractName": "COSCrowdSale",
  "abi": [
    {
      "constant": false,
      "inputs": [
        {
          "name": "_internalTokens",
          "type": "uint256"
        }
      ],
      "name": "finalize",
      "outputs": [],
      "payable": false,
      "stateMutability": "nonpayable",
      "type": "function"
    },
    {
      "constant": false,
      "inputs": [
        {
          "name": "_price",
          "type": "uint256"
        }
      ],
      "name": "setEtherPrice",
      "outputs": [],
      "payable": false,
      "stateMutability": "nonpayable",
      "type": "function"
    },
    {
      "constant": true,
      "inputs": [],
      "name": "checkContributorStatus",
      "outputs": [
        {
          "name": "whitelisted",
          "type": "bool"
        },
        {
          "name": "bonusTier",
          "type": "bool"
        }
      ],
      "payable": false,
      "stateMutability": "view",
      "type": "function"
    },
    {
      "constant": true,
      "inputs": [],
      "name": "decimals",
      "outputs": [
        {
          "name": "",
          "type": "uint256"
        }
      ],
      "payable": false,
      "stateMutability": "view",
      "type": "function"
    },
    {
      "constant": true,
      "inputs": [],
      "name": "cap",
      "outputs": [
        {
          "name": "",
          "type": "uint256"
        }
      ],
      "payable": false,
      "stateMutability": "view",
      "type": "function"
    },
    {
      "constant": false,
      "inputs": [
        {
          "name": "_address",
          "type": "address"
        }
      ],
      "name": "denyAddressForWhitelist",
      "outputs": [],
      "payable": false,
      "stateMutability": "nonpayable",
      "type": "function"
    },
    {
      "constant": true,
      "inputs": [],
      "name": "weiRaised",
      "outputs": [
        {
          "name": "",
          "type": "uint256"
        }
      ],
      "payable": false,
      "stateMutability": "view",
      "type": "function"
    },
    {
      "constant": false,
      "inputs": [],
      "name": "pauseContract",
      "outputs": [],
      "payable": false,
      "stateMutability": "nonpayable",
      "type": "function"
    },
    {
      "constant": true,
      "inputs": [],
      "name": "cosToken",
      "outputs": [
        {
          "name": "",
          "type": "address"
        }
      ],
      "payable": false,
      "stateMutability": "view",
      "type": "function"
    },
    {
      "constant": false,
      "inputs": [],
      "name": "claimTokens",
      "outputs": [],
      "payable": false,
      "stateMutability": "nonpayable",
      "type": "function"
    },
    {
      "constant": true,
      "inputs": [],
      "name": "teamWallet",
      "outputs": [
        {
          "name": "",
          "type": "address"
        }
      ],
      "payable": false,
      "stateMutability": "view",
      "type": "function"
    },
    {
      "constant": true,
      "inputs": [],
      "name": "tknsCalculated",
      "outputs": [
        {
          "name": "",
          "type": "bool"
        }
      ],
      "payable": false,
      "stateMutability": "view",
      "type": "function"
    },
    {
      "constant": true,
      "inputs": [],
      "name": "icoEndTime",
      "outputs": [
        {
          "name": "",
          "type": "uint256"
        }
      ],
      "payable": false,
      "stateMutability": "view",
      "type": "function"
    },
    {
      "constant": true,
      "inputs": [],
      "name": "owner",
      "outputs": [
        {
          "name": "",
          "type": "address"
        }
      ],
      "payable": false,
      "stateMutability": "view",
      "type": "function"
    },
    {
      "constant": true,
      "inputs": [],
      "name": "icoStartTime",
      "outputs": [
        {
          "name": "",
          "type": "uint256"
        }
      ],
      "payable": false,
      "stateMutability": "view",
      "type": "function"
    },
    {
      "constant": false,
      "inputs": [],
      "name": "unpauseContract",
      "outputs": [],
      "payable": false,
      "stateMutability": "nonpayable",
      "type": "function"
    },
    {
      "constant": false,
      "inputs": [],
      "name": "claimRefund",
      "outputs": [
        {
          "name": "success",
          "type": "bool"
        }
      ],
      "payable": false,
      "stateMutability": "nonpayable",
      "type": "function"
    },
    {
      "constant": false,
      "inputs": [
        {
          "name": "_address",
          "type": "address"
        }
      ],
      "name": "approveAddressForWhitelist",
      "outputs": [],
      "payable": false,
      "stateMutability": "nonpayable",
      "type": "function"
    },
    {
      "constant": false,
      "inputs": [],
      "name": "buyTokens",
      "outputs": [
        {
          "name": "",
          "type": "uint8"
        }
      ],
      "payable": true,
      "stateMutability": "payable",
      "type": "function"
    },
    {
      "constant": false,
      "inputs": [],
      "name": "distributeRemainingTokens",
      "outputs": [
        {
          "name": "success",
          "type": "bool"
        }
      ],
      "payable": false,
      "stateMutability": "nonpayable",
      "type": "function"
    },
    {
      "constant": false,
      "inputs": [],
      "name": "claimBonusTokens",
      "outputs": [],
      "payable": false,
      "stateMutability": "nonpayable",
      "type": "function"
    },
    {
      "constant": true,
      "inputs": [],
      "name": "holdings",
      "outputs": [
        {
          "name": "",
          "type": "address"
        }
      ],
      "payable": false,
      "stateMutability": "view",
      "type": "function"
    },
    {
      "constant": false,
      "inputs": [
        {
          "name": "newOwner",
          "type": "address"
        }
      ],
      "name": "transferOwnership",
      "outputs": [],
      "payable": false,
      "stateMutability": "nonpayable",
      "type": "function"
    },
    {
      "constant": true,
      "inputs": [],
      "name": "tknsPerPerson",
      "outputs": [
        {
          "name": "",
          "type": "uint256"
        }
      ],
      "payable": false,
      "stateMutability": "view",
      "type": "function"
    },
    {
      "constant": false,
      "inputs": [],
      "name": "claimRemainingWei",
      "outputs": [
        {
          "name": "success",
          "type": "bool"
        }
      ],
      "payable": false,
      "stateMutability": "nonpayable",
      "type": "function"
    },
    {
      "constant": true,
      "inputs": [],
      "name": "ethPrice",
      "outputs": [
        {
          "name": "",
          "type": "uint256"
        }
      ],
      "payable": false,
      "stateMutability": "view",
      "type": "function"
    },
    {
      "inputs": [
        {
          "name": "_holdings",
          "type": "address"
        },
        {
          "name": "_cosToken",
          "type": "address"
        },
        {
          "name": "_teamWallet",
          "type": "address"
        }
      ],
      "payable": false,
      "stateMutability": "nonpayable",
      "type": "constructor"
    },
    {
      "payable": true,
      "stateMutability": "payable",
      "type": "fallback"
    },
    {
      "anonymous": false,
      "inputs": [
        {
          "indexed": false,
          "name": "_owner",
          "type": "address"
        },
        {
          "indexed": false,
          "name": "_msgsender",
          "type": "address"
        },
        {
          "indexed": false,
          "name": "_qtyOfTokensRequested",
          "type": "uint256"
        }
      ],
      "name": "LogTokensTransferedFrom",
      "type": "event"
    },
    {
      "anonymous": false,
      "inputs": [
        {
          "indexed": false,
          "name": "_buyer",
          "type": "address"
        },
        {
          "indexed": false,
          "name": "_amount",
          "type": "uint256"
        }
      ],
      "name": "LogTokensReserved",
      "type": "event"
    },
    {
      "anonymous": false,
      "inputs": [
        {
          "indexed": false,
          "name": "_investor",
          "type": "address"
        },
        {
          "indexed": false,
          "name": "_amount",
          "type": "uint256"
        }
      ],
      "name": "LogWithdrawal",
      "type": "event"
    },
    {
      "anonymous": false,
      "inputs": [
        {
          "indexed": false,
          "name": "_participant",
          "type": "address"
        },
        {
          "indexed": false,
          "name": "_amountTkns",
          "type": "uint256"
        }
      ],
      "name": "LogBonusRedeemed",
      "type": "event"
    },
    {
      "anonymous": false,
      "inputs": [
        {
          "indexed": true,
          "name": "previousOwner",
          "type": "address"
        },
        {
          "indexed": true,
          "name": "newOwner",
          "type": "address"
        }
      ],
      "name": "OwnershipTransferred",
      "type": "event"
    }
  ],
  "bytecode": "0x6060604052341561000f57600080fd5b604051606080612204833981016040528080519060200190919080519060200190919080519060200190919050506000336000806101000a81548173ffffffffffffffffffffffffffffffffffffffff021916908373ffffffffffffffffffffffffffffffffffffffff16021790555060008473ffffffffffffffffffffffffffffffffffffffff16141515156100a557600080fd5b60008373ffffffffffffffffffffffffffffffffffffffff16141515156100cb57600080fd5b60008273ffffffffffffffffffffffffffffffffffffffff16141515156100f157600080fd5b42600581905550624f1a00420160068190555081600760006101000a81548173ffffffffffffffffffffffffffffffffffffffff021916908373ffffffffffffffffffffffffffffffffffffffff160217905550600060088190555082601060006101000a81548173ffffffffffffffffffffffffffffffffffffffff021916908373ffffffffffffffffffffffffffffffffffffffff160217905550600a808190555083600b60006101000a81548173ffffffffffffffffffffffffffffffffffffffff021916908373ffffffffffffffffffffffffffffffffffffffff16021790555033600c60006101000a81548173ffffffffffffffffffffffffffffffffffffffff021916908373ffffffffffffffffffffffffffffffffffffffff160217905550690470bb552179fe040000600d819055506402540be400624c4b4002601160008060ff168152602001908152602001600020600001819055506402540be400627270e00260116000600160ff16815260200190815260200160002060000181905550600290505b600760ff168160ff1610156102c6576402540be40063023c346002601160008360ff1660ff16815260200190815260200160002060000181905550808060010191505061027e565b50505050611f2b806102d96000396000f300606060405260043610610154576000357c0100000000000000000000000000000000000000000000000000000000900463ffffffff16806305261aea146101b257806327187991146101d55780632b9d782e146101f8578063313ce56714610230578063355274ea146102595780633fecf385146102825780634042b66f146102bb578063439766ce146102e45780634785a804146102f957806348c54b9d1461034e578063599270441461036357806373c9da24146103b85780637e1055b6146103e55780638da5cb5b1461040e578063a7c3d71b14610463578063b33712c51461048c578063b5545a3c146104a1578063cf67d0b6146104ce578063d0febe4c14610507578063d434f71d1461052b578063e28d8c4b14610558578063e79bf13b1461056d578063f2fde38b146105c2578063f7cb67b7146105fb578063fe2f5bde14610624578063ff186b2e14610651575b600c60009054906101000a900473ffffffffffffffffffffffffffffffffffffffff1673ffffffffffffffffffffffffffffffffffffffff163373ffffffffffffffffffffffffffffffffffffffff161415156101b057600080fd5b005b34156101bd57600080fd5b6101d3600480803590602001909190505061067a565b005b34156101e057600080fd5b6101f660048080359060200190919050506108e3565b005b341561020357600080fd5b61020b610948565b6040518083151515158152602001821515151581526020019250505060405180910390f35b341561023b57600080fd5b6102436109dd565b6040518082815260200191505060405180910390f35b341561026457600080fd5b61026c6109e3565b6040518082815260200191505060405180910390f35b341561028d57600080fd5b6102b9600480803573ffffffffffffffffffffffffffffffffffffffff169060200190919050506109e9565b005b34156102c657600080fd5b6102ce610adc565b6040518082815260200191505060405180910390f35b34156102ef57600080fd5b6102f7610ae2565b005b341561030457600080fd5b61030c610b5a565b604051808273ffffffffffffffffffffffffffffffffffffffff1673ffffffffffffffffffffffffffffffffffffffff16815260200191505060405180910390f35b341561035957600080fd5b610361610b80565b005b341561036e57600080fd5b610376610e54565b604051808273ffffffffffffffffffffffffffffffffffffffff1673ffffffffffffffffffffffffffffffffffffffff16815260200191505060405180910390f35b34156103c357600080fd5b6103cb610e7a565b604051808215151515815260200191505060405180910390f35b34156103f057600080fd5b6103f8610e8d565b6040518082815260200191505060405180910390f35b341561041957600080fd5b610421610e93565b604051808273ffffffffffffffffffffffffffffffffffffffff1673ffffffffffffffffffffffffffffffffffffffff16815260200191505060405180910390f35b341561046e57600080fd5b610476610eb9565b6040518082815260200191505060405180910390f35b341561049757600080fd5b61049f610ebf565b005b34156104ac57600080fd5b6104b4610f37565b604051808215151515815260200191505060405180910390f35b34156104d957600080fd5b610505600480803573ffffffffffffffffffffffffffffffffffffffff169060200190919050506110d3565b005b61050f611200565b604051808260ff1660ff16815260200191505060405180910390f35b341561053657600080fd5b61053e6116c5565b604051808215151515815260200191505060405180910390f35b341561056357600080fd5b61056b6117cd565b005b341561057857600080fd5b610580611aa5565b604051808273ffffffffffffffffffffffffffffffffffffffff1673ffffffffffffffffffffffffffffffffffffffff16815260200191505060405180910390f35b34156105cd57600080fd5b6105f9600480803573ffffffffffffffffffffffffffffffffffffffff16906020019091905050611acb565b005b341561060657600080fd5b61060e611c20565b6040518082815260200191505060405180910390f35b341561062f57600080fd5b610637611c26565b604051808215151515815260200191505060405180910390f35b341561065c57600080fd5b610664611dcd565b6040518082815260200191505060405180910390f35b600d5460085410158061068e575060065442115b806106a05750600061069e611dd3565b145b15156106ab57600080fd5b6000809054906101000a900473ffffffffffffffffffffffffffffffffffffffff1673ffffffffffffffffffffffffffffffffffffffff163373ffffffffffffffffffffffffffffffffffffffff1614151561070657600080fd5b601060009054906101000a900473ffffffffffffffffffffffffffffffffffffffff1673ffffffffffffffffffffffffffffffffffffffff166323b872dd600c60009054906101000a900473ffffffffffffffffffffffffffffffffffffffff16600760009054906101000a900473ffffffffffffffffffffffffffffffffffffffff16846000604051602001526040518463ffffffff167c0100000000000000000000000000000000000000000000000000000000028152600401808473ffffffffffffffffffffffffffffffffffffffff1673ffffffffffffffffffffffffffffffffffffffff1681526020018373ffffffffffffffffffffffffffffffffffffffff1673ffffffffffffffffffffffffffffffffffffffff1681526020018281526020019350505050602060405180830381600087803b151561084b57600080fd5b6102c65a03f1151561085c57600080fd5b5050506040518051905050600b60009054906101000a900473ffffffffffffffffffffffffffffffffffffffff1673ffffffffffffffffffffffffffffffffffffffff166108fc3073ffffffffffffffffffffffffffffffffffffffff16319081150290604051600060405180830381858888f1935050505015156108e057600080fd5b50565b6000809054906101000a900473ffffffffffffffffffffffffffffffffffffffff1673ffffffffffffffffffffffffffffffffffffffff163373ffffffffffffffffffffffffffffffffffffffff1614151561093e57600080fd5b8060098190555050565b6000806000600f60003373ffffffffffffffffffffffffffffffffffffffff1673ffffffffffffffffffffffffffffffffffffffff16815260200190815260200160002090506001600281111561099b57fe5b8160030160029054906101000a900460ff1660028111156109b857fe5b14600260ff168260030160009054906101000a900460ff1660ff161092509250509091565b600a5481565b600d5481565b6000809054906101000a900473ffffffffffffffffffffffffffffffffffffffff1673ffffffffffffffffffffffffffffffffffffffff163373ffffffffffffffffffffffffffffffffffffffff16141515610a4457600080fd5b600d54600854101580610a58575060065442115b80610a6a57506000610a68611dd3565b145b1515610a7557600080fd5b6002600f60008373ffffffffffffffffffffffffffffffffffffffff1673ffffffffffffffffffffffffffffffffffffffff16815260200190815260200160002060030160026101000a81548160ff02191690836002811115610ad457fe5b021790555050565b60085481565b6000809054906101000a900473ffffffffffffffffffffffffffffffffffffffff1673ffffffffffffffffffffffffffffffffffffffff163373ffffffffffffffffffffffffffffffffffffffff16141515610b3d57600080fd5b6001600e60016101000a81548160ff021916908315150217905550565b601060009054906101000a900473ffffffffffffffffffffffffffffffffffffffff1681565b600080600d54600854101580610b97575060065442115b80610ba957506000610ba7611dd3565b145b1515610bb457600080fd5b600f60003373ffffffffffffffffffffffffffffffffffffffff1673ffffffffffffffffffffffffffffffffffffffff168152602001908152602001600020915060016002811115610c0257fe5b8260030160029054906101000a900460ff166002811115610c1f57fe5b141515610c2b57600080fd5b6000826001015414151515610c3f57600080fd5b81600101549050600082600101819055507f5e33aa51243f63fa9ddbcb5ad83c855f19c432c18cd480ee396279eb771505c7600c60009054906101000a900473ffffffffffffffffffffffffffffffffffffffff163383604051808473ffffffffffffffffffffffffffffffffffffffff1673ffffffffffffffffffffffffffffffffffffffff1681526020018373ffffffffffffffffffffffffffffffffffffffff1673ffffffffffffffffffffffffffffffffffffffff168152602001828152602001935050505060405180910390a1601060009054906101000a900473ffffffffffffffffffffffffffffffffffffffff1673ffffffffffffffffffffffffffffffffffffffff166323b872dd600c60009054906101000a900473ffffffffffffffffffffffffffffffffffffffff1633846000604051602001526040518463ffffffff167c0100000000000000000000000000000000000000000000000000000000028152600401808473ffffffffffffffffffffffffffffffffffffffff1673ffffffffffffffffffffffffffffffffffffffff1681526020018373ffffffffffffffffffffffffffffffffffffffff1673ffffffffffffffffffffffffffffffffffffffff1681526020018281526020019350505050602060405180830381600087803b1515610e3457600080fd5b6102c65a03f11515610e4557600080fd5b50505060405180519050505050565b600760009054906101000a900473ffffffffffffffffffffffffffffffffffffffff1681565b600e60029054906101000a900460ff1681565b60065481565b600c60009054906101000a900473ffffffffffffffffffffffffffffffffffffffff1681565b60055481565b6000809054906101000a900473ffffffffffffffffffffffffffffffffffffffff1673ffffffffffffffffffffffffffffffffffffffff163373ffffffffffffffffffffffffffffffffffffffff16141515610f1a57600080fd5b6000600e60016101000a81548160ff021916908315150217905550565b6000806000801515600e60019054906101000a900460ff161515141515610f5d57600080fd5b600d54600854101580610f71575060065442115b80610f8357506000610f81611dd3565b145b1515610f8e57600080fd5b600f60003373ffffffffffffffffffffffffffffffffffffffff1673ffffffffffffffffffffffffffffffffffffffff1681526020019081526020016000209150600280811115610fdb57fe5b8260030160029054906101000a900460ff166002811115610ff857fe5b14151561100457600080fd5b8160000154905060008260000181905550600082600101819055507fb4214c8c54fc7442f36d3682f59aebaf09358a4431835b30efb29d52cf9e1e913382604051808373ffffffffffffffffffffffffffffffffffffffff1673ffffffffffffffffffffffffffffffffffffffff1681526020018281526020019250505060405180910390a13373ffffffffffffffffffffffffffffffffffffffff166108fc829081150290604051600060405180830381858888f1935050505015156110ca57600080fd5b60019250505090565b60008060009054906101000a900473ffffffffffffffffffffffffffffffffffffffff1673ffffffffffffffffffffffffffffffffffffffff163373ffffffffffffffffffffffffffffffffffffffff1614151561113057600080fd5b600d54600854101580611144575060065442115b8061115657506000611154611dd3565b145b151561116157600080fd5b600f60008373ffffffffffffffffffffffffffffffffffffffff1673ffffffffffffffffffffffffffffffffffffffff168152602001908152602001600020905060018160030160026101000a81548160ff021916908360028111156111c357fe5b0217905550600260ff168160030160009054906101000a900460ff1660ff161115156111fc576003600081548092919060010191905055505b5050565b6000806000806000806000806000600d54600854108015611222575060065442105b801561123557506000611233611dd3565b115b151561124057600080fd5b60001515600e60019054906101000a900460ff16151514151561126257600080fd5b6000803690501480611278575060046000369050145b151561128357600080fd5b600f60003373ffffffffffffffffffffffffffffffffffffffff1673ffffffffffffffffffffffffffffffffffffffff16815260200190815260200160002097506000600954141515156112d657600080fd5b6002808111156112e257fe5b8860030160029054906101000a900460ff1660028111156112ff57fe5b1415151561130c57600080fd5b670de0b6b3a7640000341015151561132357600080fd5b600e60009054906101000a900460ff168860030160006101000a81548160ff021916908360ff1602179055503496506113ad60095461139f6103e8611391600e60009054906101000a900460ff1660040260100160ff16670de0b6b3a7640000611e9090919063ffffffff16565b611ecb90919063ffffffff16565b611ecb90919063ffffffff16565b94505b8487101580156113d65750600760ff16600e60009054906101000a900460ff1660ff1614155b156115805760116000600e60009054906101000a900460ff1660ff1660ff16815260200190815260200160002091506114606009546114526103e8611444600e60009054906101000a900460ff1660040260100160ff16670de0b6b3a7640000611e9090919063ffffffff16565b611ecb90919063ffffffff16565b611ecb90919063ffffffff16565b945061148c6402540be40061147e878a611ecb90919063ffffffff16565b611e9090919063ffffffff16565b92506114a982600101548360000154611ee690919063ffffffff16565b9350838310151561153557838303925083826001016000828254019250508190555083860195506114fa6402540be4006114ec8787611e9090919063ffffffff16565b611ecb90919063ffffffff16565b87039650600e600081819054906101000a900460ff168092919060010191906101000a81548160ff021916908360ff1602179055505061157b565b82826001016000828254019250508190555082860195506115766402540be4006115688786611e9090919063ffffffff16565b611ecb90919063ffffffff16565b870396505b6113b0565b6115938734611ee690919063ffffffff16565b905080600860008282540192505081905550600b60009054906101000a900473ffffffffffffffffffffffffffffffffffffffff1673ffffffffffffffffffffffffffffffffffffffff166108fc829081150290604051600060405180830381858888f19350505050151561160757600080fd5b8688600201600082825401925050819055508088600001600082825401925050819055508588600101600082825401925050819055507f6387c93d20b3ff07ec699718ca35c71c5a2a744b6cf874e48db2d3ce8c74db103387604051808373ffffffffffffffffffffffffffffffffffffffff1673ffffffffffffffffffffffffffffffffffffffff1681526020018281526020019250505060405180910390a1600e60009054906101000a900460ff169850505050505050505090565b600080600d546008541015806116dc575060065442115b806116ee575060006116ec611dd3565b145b15156116f957600080fd5b6000809054906101000a900473ffffffffffffffffffffffffffffffffffffffff1673ffffffffffffffffffffffffffffffffffffffff163373ffffffffffffffffffffffffffffffffffffffff1614151561175457600080fd5b6402540be400614e2002611766611dd3565b11151561177257600080fd5b61178d600261177f611dd3565b611ecb90919063ffffffff16565b90506117a460035482611ecb90919063ffffffff16565b6004819055506001600e60026101000a81548160ff021916908315150217905550600191505090565b6000600d546008541015806117e3575060065442115b806117f5575060006117f3611dd3565b145b151561180057600080fd5b600f60003373ffffffffffffffffffffffffffffffffffffffff1673ffffffffffffffffffffffffffffffffffffffff1681526020019081526020016000209050600e60029054906101000a900460ff16151561185c57600080fd5b6001600281111561186957fe5b8160030160029054906101000a900460ff16600281111561188657fe5b14151561189257600080fd5b600260ff168160030160009054906101000a900460ff1660ff16111515156118b957600080fd5b8060030160019054906101000a900460ff161515156118d757600080fd5b60018160030160016101000a81548160ff0219169083151502179055507f84bc016cc0601ea57524e665192e5c7e43518a493fbef77b05f5d62d2c8ac5b533600454604051808373ffffffffffffffffffffffffffffffffffffffff1673ffffffffffffffffffffffffffffffffffffffff1681526020018281526020019250505060405180910390a1601060009054906101000a900473ffffffffffffffffffffffffffffffffffffffff1673ffffffffffffffffffffffffffffffffffffffff166323b872dd600c60009054906101000a900473ffffffffffffffffffffffffffffffffffffffff16336004546000604051602001526040518463ffffffff167c0100000000000000000000000000000000000000000000000000000000028152600401808473ffffffffffffffffffffffffffffffffffffffff1673ffffffffffffffffffffffffffffffffffffffff1681526020018373ffffffffffffffffffffffffffffffffffffffff1673ffffffffffffffffffffffffffffffffffffffff1681526020018281526020019350505050602060405180830381600087803b1515611a8657600080fd5b6102c65a03f11515611a9757600080fd5b505050604051805190505050565b600b60009054906101000a900473ffffffffffffffffffffffffffffffffffffffff1681565b6000809054906101000a900473ffffffffffffffffffffffffffffffffffffffff1673ffffffffffffffffffffffffffffffffffffffff163373ffffffffffffffffffffffffffffffffffffffff16141515611b2657600080fd5b600073ffffffffffffffffffffffffffffffffffffffff168173ffffffffffffffffffffffffffffffffffffffff1614151515611b6257600080fd5b8073ffffffffffffffffffffffffffffffffffffffff166000809054906101000a900473ffffffffffffffffffffffffffffffffffffffff1673ffffffffffffffffffffffffffffffffffffffff167f8be0079c531659141344cd1fd0a4f28419497f9722a3daafe3b4186f6b6457e060405160405180910390a3806000806101000a81548173ffffffffffffffffffffffffffffffffffffffff021916908373ffffffffffffffffffffffffffffffffffffffff16021790555050565b60045481565b6000806000801515600e60019054906101000a900460ff161515141515611c4c57600080fd5b600d54600854101580611c60575060065442115b80611c7257506000611c70611dd3565b145b1515611c7d57600080fd5b600f60003373ffffffffffffffffffffffffffffffffffffffff1673ffffffffffffffffffffffffffffffffffffffff168152602001908152602001600020915060016002811115611ccb57fe5b8260030160029054906101000a900460ff166002811115611ce857fe5b141515611cf457600080fd5b6000826002015414151515611d0857600080fd5b81600201549050600082600201819055507fb4214c8c54fc7442f36d3682f59aebaf09358a4431835b30efb29d52cf9e1e913382604051808373ffffffffffffffffffffffffffffffffffffffff1673ffffffffffffffffffffffffffffffffffffffff1681526020018281526020019250505060405180910390a13373ffffffffffffffffffffffffffffffffffffffff166108fc829081150290604051600060405180830381858888f193505050501515611dc457600080fd5b60019250505090565b60095481565b60008060008090505b600760ff168160ff161015611e8857601160008260ff1660ff16815260200190815260200160002060000154601160008360ff1660ff168152602001908152602001600020600101541015611e7b57611e76601160008360ff1660ff16815260200190815260200160002060010154601160008460ff1660ff16815260200190815260200160002060000154611ee690919063ffffffff16565b820191505b8080600101915050611ddc565b819250505090565b6000806000841415611ea55760009150611ec4565b8284029050828482811515611eb657fe5b04141515611ec057fe5b8091505b5092915050565b6000808284811515611ed957fe5b0490508091505092915050565b6000828211151515611ef457fe5b8183039050929150505600a165627a7a7230582073ab7f2140b12e28d7095f1dc5a9c65fee66e80cf5d8e9f0b3bf474ea43a18bb0029",
  "source": "pragma solidity 0.4.18;\r\n\r\nimport './COSToken.sol';\r\nimport 'zeppelin-solidity/contracts/ownership/Ownable.sol';\r\nimport 'zeppelin-solidity/contracts/math/SafeMath.sol';\r\n\r\ncontract COSCrowdSale is Ownable{\r\n  using SafeMath for uint256;\r\n\r\n  uint256 constant internal MIN_CONTRIBUTION = 1 ether;\r\n  uint256 constant internal TOKEN_DECIMALS = 10**10;\r\n  uint256 constant internal ETH_DECIMALS = 10**18;\r\n  uint8 constant internal TIERS = 7;\r\n  uint8 constant internal BONUS_TIER = 2;\r\n\r\n  uint256 private approvedCounter;\r\n  uint256 private deniedCounter;\r\n  uint256 private bonusCounter;\r\n\r\n  uint256 public tknsPerPerson;\r\n  uint256 public icoStartTime;\r\n  uint256 public icoEndTime;\r\n  address public teamWallet;\r\n  \r\n  uint256 public weiRaised;\r\n  uint256 public ethPrice;\r\n  uint256 public decimals;\r\n  address public holdings;\r\n  address public owner;\r\n  uint256 public cap;\r\n  uint8 private tier;\r\n  bool private paused;\r\n  \r\n\r\n  bool public tknsCalculated;\r\n\r\n  enum Status {\r\n    New, Approved, Denied\r\n  }\r\n\r\n  struct Participant {\r\n    uint256 contrAmount;\r\n    uint256 qtyTokens;\r\n    uint256 remainingWei;\r\n    uint8 tierPurchased;\r\n    bool bonusPaid;\r\n    Status whitelistStatus;\r\n\r\n  }\r\n\r\n  mapping(address => Participant) participants;\r\n\r\n  //The Cosmocoin token contract\r\n  COSToken public cosToken; \r\n\r\n  struct SaleTier {      \r\n    uint256 tokensToBeSold;  //amount of tokens to be sold in this SaleTier\r\n    uint256 tokensSold;      //amount of tokens sold in each SaleTier     \r\n  }\r\n   \r\n  mapping(uint8 => SaleTier) saleTier;\r\n\r\n  event LogTokensTransferedFrom(address _owner, address _msgsender, uint256 _qtyOfTokensRequested);\r\n  event LogTokensReserved(address _buyer, uint256 _amount);\r\n  event LogWithdrawal(address _investor, uint256 _amount);\r\n  event LogBonusRedeemed(address _participant, uint256 _amountTkns); \r\n \r\n  modifier isValidPayload() {\r\n    require(msg.data.length == 0 || msg.data.length == 4); // double check this one\r\n    _;\r\n  }\r\n\r\n  modifier icoIsActive() {\r\n    require(weiRaised < cap && now < icoEndTime && calculateRemainingTokens() > 0);\r\n    _;\r\n  }\r\n\r\n  modifier icoHasEnded() {\r\n    require(weiRaised >= cap || now > icoEndTime || calculateRemainingTokens() == 0);\r\n    _;\r\n  }\r\n\r\n  modifier activeContract(){\r\n    require(paused == false);\r\n    _;\r\n  }\r\n\r\n  /// @dev confirm price thresholds and amounts\r\n  ///  holdings for holding ether\r\n  ///  COSToken token address pushed to mainnet first\r\n  function COSCrowdSale(address _holdings, address _cosToken, address _teamWallet) \r\n    public \r\n  {\r\n    require(_holdings != 0x0);\r\n    require(_cosToken != 0x0);\r\n    require(_teamWallet != 0x0);     \r\n \r\n    icoStartTime = now; //pick a block number to start on\r\n    icoEndTime = now + 60 days; //pick a block number to end on\r\n    teamWallet = _teamWallet;\r\n    weiRaised = 0;\r\n    cosToken = COSToken(_cosToken);    \r\n    decimals = 10;\r\n    holdings = _holdings;\r\n    owner = msg.sender;\r\n    cap = 20969 ether;\r\n\r\n    saleTier[0].tokensToBeSold = (5000000)*TOKEN_DECIMALS;\r\n    saleTier[1].tokensToBeSold = (7500000)*TOKEN_DECIMALS;\r\n\r\n   for(uint8 i=2; i<TIERS; i++){ \r\n    saleTier[i].tokensToBeSold = (37500000)*TOKEN_DECIMALS;\r\n   } \r\n }\r\n\r\n  /// @dev Fallback function.\r\n  /// @dev Reject random ethereum being sent to the contract.\r\n  /// @notice allows for owner to send ethereum to the contract in the event\r\n  /// of a refund\r\n  function()\r\n    public\r\n    payable\r\n  {\r\n    require(msg.sender == owner);\r\n  }\r\n\r\n  /// @notice buyer calls this function to order to get on the list for approval\r\n  /// buyers must send the ether with their whitelist application\r\n  function buyTokens()\r\n    external\r\n    payable\r\n    icoIsActive\r\n    activeContract\r\n    isValidPayload\r\n    \r\n    returns (uint8)\r\n  {\r\n    \r\n    Participant storage participant = participants[msg.sender];\r\n\r\n    require(ethPrice != 0);\r\n    require(participant.whitelistStatus != Status.Denied);\r\n    require(msg.value >= MIN_CONTRIBUTION);\r\n    participant.tierPurchased = tier; \r\n\r\n    uint256 remainingWei = msg.value;\r\n    uint256 totalTokensRequested;\r\n    uint256 price = (ETH_DECIMALS.mul(uint256(16+(4*tier))).div(1000)).div(ethPrice);\r\n    uint256 tierRemainingTokens;\r\n    uint256 tknsRequested;\r\n  \r\n    while(remainingWei >= price && tier != TIERS) {\r\n\r\n      SaleTier storage tiers = saleTier[tier];\r\n      price = (ETH_DECIMALS.mul(uint256(16+(4*tier))).div(1000)).div(ethPrice);\r\n      tknsRequested = (remainingWei.div(price)).mul(TOKEN_DECIMALS);\r\n      tierRemainingTokens = tiers.tokensToBeSold.sub(tiers.tokensSold);\r\n      if(tknsRequested >= tierRemainingTokens){\r\n        tknsRequested -= tierRemainingTokens;\r\n        tiers.tokensSold += tierRemainingTokens;\r\n        totalTokensRequested += tierRemainingTokens;\r\n        remainingWei -= ((tierRemainingTokens.mul(price)).div(TOKEN_DECIMALS));\r\n        tier++;\r\n      } else{\r\n        tiers.tokensSold += tknsRequested;\r\n        totalTokensRequested += tknsRequested;\r\n        remainingWei -= ((tknsRequested.mul(price)).div(TOKEN_DECIMALS));\r\n      }  \r\n    }\r\n\r\n    uint256 amount = msg.value.sub(remainingWei);\r\n    weiRaised += amount;\r\n    holdings.transfer(amount);\r\n\r\n    participant.remainingWei += remainingWei;\r\n    participant.contrAmount += amount;\r\n    participant.qtyTokens += totalTokensRequested;\r\n    LogTokensReserved(msg.sender, totalTokensRequested);\r\n    \r\n    return tier;\r\n  }\r\n\r\n  ///@notice calculates how many wei per token\r\n//   function calculateTokenPrice(uint8 _tier)\r\n//     view\r\n//     internal\r\n//     returns (uint256)\r\n//     {\r\n//       uint256 price = (ETH_DECIMALS.mul(uint256(16+(4*_tier))).div(1000)).div(ethPrice);\r\n//       return price;\r\n//     }\r\n\r\n  ///@notice I want to get the price of ethereum every time I call the buy tokens function\r\n  ///what has to change in this function to make that happen safely\r\n  ///param ethereum price will exclude decimals\r\n  function setEtherPrice(uint256 _price)\r\n    external\r\n    onlyOwner\r\n    {\r\n      ethPrice = _price;\r\n    }\r\n\r\n  ///@notice interface for founders to whitelist participants\r\n  function approveAddressForWhitelist(address _address) \r\n    public \r\n    onlyOwner\r\n    icoHasEnded \r\n    {\r\n      Participant storage participant = participants[_address];\r\n      participant.whitelistStatus = Status.Approved;\r\n      if(participant.tierPurchased <= BONUS_TIER){\r\n        bonusCounter++;\r\n      }\r\n    }\r\n\r\n  ///@notice interface for founders to whitelist participants\r\n  function denyAddressForWhitelist(address _address) \r\n    public \r\n    onlyOwner\r\n    icoHasEnded \r\n    {\r\n      participants[_address].whitelistStatus = Status.Denied;\r\n    }\r\n\r\n  /// @notice pause specific funtions of the contract\r\n  function pauseContract() public onlyOwner {\r\n    paused = true;\r\n  }\r\n\r\n  /// @notice to unpause functions\r\n  function unpauseContract() public onlyOwner {\r\n    paused = false;\r\n  } \r\n\r\n  function checkContributorStatus()\r\n    view\r\n    public\r\n    returns (bool whitelisted, bool bonusTier)\r\n  {\r\n    Participant storage participant = participants[msg.sender];\r\n    return (participant.whitelistStatus == Status.Approved, participant.tierPurchased < BONUS_TIER);\r\n  }     \r\n\r\n  /// @dev freeze unsold tokens for use at a later time\r\n  /// and transfer team, owner and other internally promised tokens\r\n  /// param total number of tokens being transfered to the freeze wallet\r\n  function finalize(uint256 _internalTokens)\r\n    public\r\n    icoHasEnded\r\n    onlyOwner\r\n  {\r\n    cosToken.transferFrom(owner, teamWallet, _internalTokens);\r\n    holdings.transfer(this.balance);   \r\n  }\r\n\r\n  /// @notice calculate unsold tokens for transfer to holdings to be used at a later date\r\n  function calculateRemainingTokens()\r\n    view\r\n    internal\r\n    returns (uint256)\r\n  {\r\n    uint256 remainingTokens;\r\n    for(uint8 i = 0; i < TIERS; i++){\r\n      if(saleTier[i].tokensSold < saleTier[i].tokensToBeSold){\r\n        remainingTokens += saleTier[i].tokensToBeSold.sub(saleTier[i].tokensSold);\r\n      }\r\n    }\r\n    return remainingTokens;\r\n  }\r\n\r\n  ///param total number of whitelist participants collected from the final count in the database\r\n  ///manually entered here tokens will be then be available for collection by the qualified participants\r\n  function distributeRemainingTokens()\r\n    public\r\n    icoHasEnded\r\n    onlyOwner\r\n    returns(bool success)\r\n  {\r\n    require(calculateRemainingTokens() > 20000*TOKEN_DECIMALS);\r\n    uint256 bonusDistribution = calculateRemainingTokens().div(2); //split evenly between participants and reserve  \r\n    tknsPerPerson = bonusDistribution.div(bonusCounter);\r\n    tknsCalculated = true;\r\n    return true;   \r\n  }\r\n\r\n  /// notice sends requested tokens to the whitelist person\r\n  function claimTokens() \r\n    external\r\n    icoHasEnded\r\n  {\r\n    Participant storage participant = participants[msg.sender];\r\n    require(participant.whitelistStatus == Status.Approved);\r\n    require(participant.qtyTokens != 0);\r\n    uint256 tkns = participant.qtyTokens;\r\n    participant.qtyTokens = 0;\r\n    LogTokensTransferedFrom(owner, msg.sender, tkns);\r\n    cosToken.transferFrom(owner, msg.sender, tkns);\r\n  }\r\n\r\n  ///@notice participants can claim their bonus tokens here after the distribute Remaining Tokens function \r\n  ///has been called claiments will only recieve extra tokens if the tkns calculated is ture they are whitelisted\r\n  ///and purchased within the BONUS TIERS\r\n  function claimBonusTokens()\r\n    public\r\n    icoHasEnded\r\n  {\r\n    Participant storage participant = participants[msg.sender];\r\n    require(tknsCalculated);\r\n    require(participant.whitelistStatus == Status.Approved);\r\n    require(participant.tierPurchased <= BONUS_TIER);\r\n    require(!participant.bonusPaid);\r\n    participant.bonusPaid = true;\r\n    LogBonusRedeemed(msg.sender, tknsPerPerson); \r\n    cosToken.transferFrom(owner, msg.sender, tknsPerPerson); \r\n  }\r\n\r\n  /// @notice no ethereum will be held in the crowdsale contract\r\n  /// when refunds become available the amount of Ethererum needed will\r\n  /// be manually transfered back to the crowdsale to be refunded\r\n  function claimRefund()\r\n    external\r\n    activeContract\r\n    icoHasEnded\r\n    returns (bool success)\r\n  {\r\n    Participant storage participant = participants[msg.sender];\r\n    require(participant.whitelistStatus == Status.Denied);\r\n    uint256 sendValue = participant.contrAmount;\r\n    participant.contrAmount = 0;\r\n    participant.qtyTokens = 0;\r\n    LogWithdrawal(msg.sender, sendValue);\r\n    msg.sender.transfer(sendValue);\r\n    return true;\r\n  }\r\n\r\n\r\n  /// @notice no ethereum will be held in the crowdsale contract\r\n  /// when refunds become available the amount of Ethererum needed will\r\n  /// be manually transfered back to the crowdsale to be refunded\r\n  /// @notice only the last person that buys tokens if they deposited enought to buy more \r\n  /// tokens than what is available will be able to use this function\r\n  function claimRemainingWei()\r\n    external\r\n    activeContract\r\n    icoHasEnded\r\n    returns (bool success)\r\n  {\r\n    Participant storage participant = participants[msg.sender];\r\n    require(participant.whitelistStatus == Status.Approved);\r\n    require(participant.remainingWei != 0);\r\n    uint256 sendValue = participant.remainingWei;\r\n    participant.remainingWei = 0;\r\n    LogWithdrawal(msg.sender, sendValue);\r\n    msg.sender.transfer(sendValue);\r\n    return true;\r\n  }\r\n}",
  "sourcePath": "D:\\Projects\\iConsult\\contracts\\COSCrowdSale.sol",
  "compiler": {
    "name": "solc",
    "version": "0.4.18+commit.9cf6e910.Emscripten.clang"
  },
  "schemaVersion": "1.0.1",
  "updatedAt": "2018-01-23T17:46:43.613Z"
}