{
  "contractName": "COSTeamWallet",
  "abi": [
    {
      "constant": true,
      "inputs": [],
      "name": "FREEZE_TIME",
      "outputs": [
        {
          "name": "",
          "type": "uint256"
        }
      ],
      "payable": false,
      "stateMutability": "view",
      "type": "function"
    },
    {
      "constant": true,
      "inputs": [],
      "name": "cosToken",
      "outputs": [
        {
          "name": "",
          "type": "address"
        }
      ],
      "payable": false,
      "stateMutability": "view",
      "type": "function"
    },
    {
      "constant": true,
      "inputs": [],
      "name": "totalWithdrawn",
      "outputs": [
        {
          "name": "",
          "type": "uint256"
        }
      ],
      "payable": false,
      "stateMutability": "view",
      "type": "function"
    },
    {
      "constant": true,
      "inputs": [],
      "name": "startTime",
      "outputs": [
        {
          "name": "",
          "type": "uint256"
        }
      ],
      "payable": false,
      "stateMutability": "view",
      "type": "function"
    },
    {
      "constant": false,
      "inputs": [],
      "name": "transferTeamTokens",
      "outputs": [
        {
          "name": "success",
          "type": "bool"
        }
      ],
      "payable": false,
      "stateMutability": "nonpayable",
      "type": "function"
    },
    {
      "constant": false,
      "inputs": [
        {
          "name": "_teamMember",
          "type": "address"
        },
        {
          "name": "_tokenAmount",
          "type": "uint256"
        }
      ],
      "name": "addTeamMember",
      "outputs": [
        {
          "name": "success",
          "type": "bool"
        }
      ],
      "payable": false,
      "stateMutability": "nonpayable",
      "type": "function"
    },
    {
      "constant": true,
      "inputs": [],
      "name": "owner",
      "outputs": [
        {
          "name": "",
          "type": "address"
        }
      ],
      "payable": false,
      "stateMutability": "view",
      "type": "function"
    },
    {
      "constant": false,
      "inputs": [
        {
          "name": "newOwner",
          "type": "address"
        }
      ],
      "name": "transferOwnership",
      "outputs": [],
      "payable": false,
      "stateMutability": "nonpayable",
      "type": "function"
    },
    {
      "inputs": [
        {
          "name": "_cosToken",
          "type": "address"
        }
      ],
      "payable": false,
      "stateMutability": "nonpayable",
      "type": "constructor"
    },
    {
      "anonymous": false,
      "inputs": [
        {
          "indexed": false,
          "name": "_teamMember",
          "type": "address"
        },
        {
          "indexed": false,
          "name": "_tokenAmount",
          "type": "uint256"
        }
      ],
      "name": "LogWithdrawal",
      "type": "event"
    },
    {
      "anonymous": false,
      "inputs": [
        {
          "indexed": true,
          "name": "previousOwner",
          "type": "address"
        },
        {
          "indexed": true,
          "name": "newOwner",
          "type": "address"
        }
      ],
      "name": "OwnershipTransferred",
      "type": "event"
    }
  ],
  "bytecode": "0x6060604052341561000f57600080fd5b60405160208061085783398101604052808051906020019091905050336000806101000a81548173ffffffffffffffffffffffffffffffffffffffff021916908373ffffffffffffffffffffffffffffffffffffffff16021790555060008173ffffffffffffffffffffffffffffffffffffffff161415151561009157600080fd5b4260028190555080600160006101000a81548173ffffffffffffffffffffffffffffffffffffffff021916908373ffffffffffffffffffffffffffffffffffffffff160217905550336000806101000a81548173ffffffffffffffffffffffffffffffffffffffff021916908373ffffffffffffffffffffffffffffffffffffffff1602179055505061072e806101296000396000f30060606040526004361061008e576000357c0100000000000000000000000000000000000000000000000000000000900463ffffffff1680631a038873146100935780634785a804146100bc5780634b3197131461011157806378e979251461013a5780638528b528146101635780638d13192b146101905780638da5cb5b146101ea578063f2fde38b1461023f575b600080fd5b341561009e57600080fd5b6100a6610278565b6040518082815260200191505060405180910390f35b34156100c757600080fd5b6100cf610280565b604051808273ffffffffffffffffffffffffffffffffffffffff1673ffffffffffffffffffffffffffffffffffffffff16815260200191505060405180910390f35b341561011c57600080fd5b6101246102a6565b6040518082815260200191505060405180910390f35b341561014557600080fd5b61014d6102ac565b6040518082815260200191505060405180910390f35b341561016e57600080fd5b6101766102b2565b604051808215151515815260200191505060405180910390f35b341561019b57600080fd5b6101d0600480803573ffffffffffffffffffffffffffffffffffffffff169060200190919080359060200190919050506104bf565b604051808215151515815260200191505060405180910390f35b34156101f557600080fd5b6101fd61056a565b604051808273ffffffffffffffffffffffffffffffffffffffff1673ffffffffffffffffffffffffffffffffffffffff16815260200191505060405180910390f35b341561024a57600080fd5b610276600480803573ffffffffffffffffffffffffffffffffffffffff1690602001909190505061058f565b005b6302304d8081565b600160009054906101000a900473ffffffffffffffffffffffffffffffffffffffff1681565b60035481565b60025481565b6000806102ce6302304d806002546106e490919063ffffffff16565b42101515156102dc57600080fd5b600460003373ffffffffffffffffffffffffffffffffffffffff1673ffffffffffffffffffffffffffffffffffffffff1681526020019081526020016000205490506000600460003373ffffffffffffffffffffffffffffffffffffffff1673ffffffffffffffffffffffffffffffffffffffff16815260200190815260200160002081905550600160009054906101000a900473ffffffffffffffffffffffffffffffffffffffff1673ffffffffffffffffffffffffffffffffffffffff1663a9059cbb33836000604051602001526040518363ffffffff167c0100000000000000000000000000000000000000000000000000000000028152600401808373ffffffffffffffffffffffffffffffffffffffff1673ffffffffffffffffffffffffffffffffffffffff16815260200182815260200192505050602060405180830381600087803b151561043057600080fd5b6102c65a03f1151561044157600080fd5b50505060405180519050507fb4214c8c54fc7442f36d3682f59aebaf09358a4431835b30efb29d52cf9e1e913382604051808373ffffffffffffffffffffffffffffffffffffffff1673ffffffffffffffffffffffffffffffffffffffff1681526020018281526020019250505060405180910390a1600191505090565b60008060009054906101000a900473ffffffffffffffffffffffffffffffffffffffff1673ffffffffffffffffffffffffffffffffffffffff163373ffffffffffffffffffffffffffffffffffffffff1614151561051c57600080fd5b81600460008573ffffffffffffffffffffffffffffffffffffffff1673ffffffffffffffffffffffffffffffffffffffff168152602001908152602001600020819055506001905092915050565b6000809054906101000a900473ffffffffffffffffffffffffffffffffffffffff1681565b6000809054906101000a900473ffffffffffffffffffffffffffffffffffffffff1673ffffffffffffffffffffffffffffffffffffffff163373ffffffffffffffffffffffffffffffffffffffff161415156105ea57600080fd5b600073ffffffffffffffffffffffffffffffffffffffff168173ffffffffffffffffffffffffffffffffffffffff161415151561062657600080fd5b8073ffffffffffffffffffffffffffffffffffffffff166000809054906101000a900473ffffffffffffffffffffffffffffffffffffffff1673ffffffffffffffffffffffffffffffffffffffff167f8be0079c531659141344cd1fd0a4f28419497f9722a3daafe3b4186f6b6457e060405160405180910390a3806000806101000a81548173ffffffffffffffffffffffffffffffffffffffff021916908373ffffffffffffffffffffffffffffffffffffffff16021790555050565b60008082840190508381101515156106f857fe5b80915050929150505600a165627a7a72305820dc6f21610fa4ee8c08d0d3dc9754c2f5117783d6d941b7b06c9ba7a822fb9fd80029",
  "source": "pragma solidity 0.4.18;\r\n\r\nimport './COSToken.sol';\r\nimport 'zeppelin-solidity/contracts/ownership/Ownable.sol';\r\nimport 'zeppelin-solidity/contracts/math/SafeMath.sol';\r\n\r\ncontract COSTeamWallet is Ownable{\r\n  using SafeMath for uint256;\r\n\r\n  uint256 constant public FREEZE_TIME = 425 days; //accounts for ICO days\r\n  \r\n  COSToken public cosToken;\r\n  uint256 public startTime;\r\n  uint256 public totalWithdrawn;\r\n\r\n  mapping (address => uint256) teamMember;\r\n  \r\n  event LogWithdrawal(address _teamMember, uint256 _tokenAmount);\r\n  \r\n\r\n  modifier withdrawalAvailable() { \r\n    require(now >= startTime.add(FREEZE_TIME)); \r\n    _; \r\n  }\r\n  \r\n  function COSTeamWallet(address _cosToken)\r\n    public\r\n  {  \r\n    require(_cosToken != 0x0);\r\n    startTime = now;\r\n    cosToken = COSToken(_cosToken);\r\n    owner = msg.sender;\r\n  }\r\n\r\n  function addTeamMember(address _teamMember, uint256 _tokenAmount)\r\n    public\r\n    onlyOwner\r\n    returns(bool success)\r\n  {\r\n    teamMember[_teamMember] = _tokenAmount;\r\n    return true;\r\n  }\r\n\r\n  function transferTeamTokens()\r\n    public\r\n    withdrawalAvailable\r\n    returns (bool success)\r\n  {\r\n    uint256 sendValue = teamMember[msg.sender];\r\n    teamMember[msg.sender] = 0;\r\n    cosToken.transfer(msg.sender, sendValue);\r\n    LogWithdrawal(msg.sender, sendValue);\r\n    return true;\r\n  }\r\n\r\n}\r\n",
  "sourcePath": "D:\\Projects\\iConsult\\contracts\\COSTeamWallet.sol",
  "compiler": {
    "name": "solc",
    "version": "0.4.18+commit.9cf6e910.Emscripten.clang"
  },
  "schemaVersion": "1.0.1",
  "updatedAt": "2018-01-23T17:46:43.626Z"
}